{
  "_format": "hh-sol-artifact-1",
  "contractName": "Bank",
  "sourceName": "contracts/Bank.sol",
  "abi": [
    {
      "inputs": [
        {
          "internalType": "address",
          "name": "",
          "type": "address"
        }
      ],
      "name": "balanceOf",
      "outputs": [
        {
          "internalType": "uint256",
          "name": "",
          "type": "uint256"
        }
      ],
      "stateMutability": "view",
      "type": "function"
    },
    {
      "inputs": [],
      "name": "deposit",
      "outputs": [],
      "stateMutability": "payable",
      "type": "function"
    },
    {
      "inputs": [],
      "name": "withdraw",
      "outputs": [],
      "stateMutability": "nonpayable",
      "type": "function"
    }
  ],
  "bytecode": "0x608060405234801561001057600080fd5b506001600081905550610623806100286000396000f3fe6080604052600436106100345760003560e01c80633ccfd60b1461003957806370a0823114610050578063d0e30db01461008d575b600080fd5b34801561004557600080fd5b5061004e610097565b005b34801561005c57600080fd5b5061007760048036038101906100729190610368565b6101a1565b60405161008491906103ae565b60405180910390f35b6100956101b9565b005b6002600054036100dc576040517f08c379a00000000000000000000000000000000000000000000000000000000081526004016100d390610426565b60405180910390fd5b60026000819055506000600160003373ffffffffffffffffffffffffffffffffffffffff1673ffffffffffffffffffffffffffffffffffffffff168152602001908152602001600020549050610151813373ffffffffffffffffffffffffffffffffffffffff1661021190919063ffffffff16565b6000600160003373ffffffffffffffffffffffffffffffffffffffff1673ffffffffffffffffffffffffffffffffffffffff16815260200190815260200160002081905550506001600081905550565b60016020528060005260406000206000915090505481565b34600160003373ffffffffffffffffffffffffffffffffffffffff1673ffffffffffffffffffffffffffffffffffffffff16815260200190815260200160002060008282546102089190610475565b92505081905550565b80471015610254576040517f08c379a000000000000000000000000000000000000000000000000000000000815260040161024b906104f5565b60405180910390fd5b60008273ffffffffffffffffffffffffffffffffffffffff168260405161027a90610546565b60006040518083038185875af1925050503d80600081146102b7576040519150601f19603f3d011682016040523d82523d6000602084013e6102bc565b606091505b5050905080610300576040517f08c379a00000000000000000000000000000000000000000000000000000000081526004016102f7906105cd565b60405180910390fd5b505050565b600080fd5b600073ffffffffffffffffffffffffffffffffffffffff82169050919050565b60006103358261030a565b9050919050565b6103458161032a565b811461035057600080fd5b50565b6000813590506103628161033c565b92915050565b60006020828403121561037e5761037d610305565b5b600061038c84828501610353565b91505092915050565b6000819050919050565b6103a881610395565b82525050565b60006020820190506103c3600083018461039f565b92915050565b600082825260208201905092915050565b7f5265656e7472616e637947756172643a207265656e7472616e742063616c6c00600082015250565b6000610410601f836103c9565b915061041b826103da565b602082019050919050565b6000602082019050818103600083015261043f81610403565b9050919050565b7f4e487b7100000000000000000000000000000000000000000000000000000000600052601160045260246000fd5b600061048082610395565b915061048b83610395565b92508282019050808211156104a3576104a2610446565b5b92915050565b7f416464726573733a20696e73756666696369656e742062616c616e6365000000600082015250565b60006104df601d836103c9565b91506104ea826104a9565b602082019050919050565b6000602082019050818103600083015261050e816104d2565b9050919050565b600081905092915050565b50565b6000610530600083610515565b915061053b82610520565b600082019050919050565b600061055182610523565b9150819050919050565b7f416464726573733a20756e61626c6520746f2073656e642076616c75652c207260008201527f6563697069656e74206d61792068617665207265766572746564000000000000602082015250565b60006105b7603a836103c9565b91506105c28261055b565b604082019050919050565b600060208201905081810360008301526105e6816105aa565b905091905056fea2646970667358221220fea2eb1251291171d064f60881b75234e2afe57274136cbf66d29a7d02818d0a64736f6c63430008110033",
  "linkReferences": {},
  "deployedLinkReferences": {}
}